:100000000C942A000C9447000C9447000C94470071
:100010000C9447000C9447000C9447000C94470044
:100020000C9447000C9447000C9494000C944700E7
:100030000C9447000C9447000C9447000C94470024
:100040000C9447000C9447000C9447000C94470014
:100050000C94470011241FBECFE5D4E0DEBFCDBF16
:1000600010E0A0E6B0E0E2E3FAE002C005900D92F5
:10007000A23FB107D9F711E0A2EFB0E001C01D9295
:10008000A535B107E1F70E94E8040C9417050C941C
:1000900000008FB780688FBF80E00895882329F41F
:1000A00089B7816089BF80E00895813011F081E0D7
:1000B000089589B7826089BF80E00895882329F474
:1000C00089B78E7F89BF80E00895813011F081E08B
:1000D000089589B78D7F89BF80E008958A3110F037
:1000E00081E00895E82FF0E0EE0FFF1FE550FF4F8D
:1000F0007183608380E00895FB01882341F408B692
:1001000000FC02C01082089581E0808308C0813025
:1001100011F081E0089508B600FC03C0108280E071
:100120000895808380E008951F920F920FB60F927A
:1001300011242F933F934F935F936F937F938F93EC
:100140009F93AF93BF93EF93FF930E94DB01FF91C7
:10015000EF91BF91AF919F918F917F916F915F913F
:100160004F913F912F910F900FBE0F901F901895B8
:10017000CF93DF93DC0130E060E041E050E0EC91B0
:10018000E43010F031E07DC011969C9111979830C9
:1001900010F032E076C013962C911397223010F0B5
:1001A00033E01CC0F0E0EC59FF4F8081E82FF0E015
:1001B000213049F42081EA0102C0CC0FDD1F9A955D
:1001C000E2F72C2B0AC02081EA0102C0CC0FDD1F10
:1001D0009A95E2F7CE0180952823208312962C91E0
:1001E0001297223010F035E020C0EC91F0E0E85991
:1001F000FF4F808111969C911197E82FF0E02130FC
:1002000049F42081EA0102C0CC0FDD1F9A95E2F784
:100210002C2B0AC02081EA0102C0CC0FDD1F9A9569
:10022000E2F7CE0180952823208314962C91149711
:10023000223030F513968C911397813009F5EC91AB
:10024000F0E0E859FF4F808111969C911197E82FBB
:10025000F0E0213049F42081EA0102C0CC0FDD1F1B
:100260009A95E2F72C2B0AC02081EA0102C0CC0F3C
:10027000DD1F9A95E2F7CE0180952823208301C0E7
:1002800034E06F5F16966E3009F079CF832FDF91DF
:10029000CF910895DA01843010F081E0089568303C
:1002A00010F082E00895E82FF0E0E05AFF4FE0817F
:1002B000F0E08081E82FF0E081E090E0062E02C0BF
:1002C000880F991F0A94E2F7E823F92302C0F595F5
:1002D000E7956A95E2F7EE2311F41C9202C0E13033
:1002E00011F080E00895EC9380E00895DB01843004
:1002F00010F081E00895E82FF0E0E05AFF4FE08130
:10030000F0E080818C9380E00895843010F081E0EB
:100310000895683010F082E00895E82FF0E0E85981
:10032000FF4F8081413069F4E82FF0E0208181E0C7
:1003300090E002C0880F991F6A95E2F7282B20836E
:1003400002C0442311F080E00895E82FF0E02081FE
:1003500081E090E002C0880F991F6A95E2F78095CE
:100360002823208380E00895843010F081E00895F0
:10037000E82FF0E0E859FF4FE081F0E0608380E093
:100380000895843010F081E00895683010F082E024
:100390000895E82FF0E0E859FF4FE081F0E0208178
:1003A00081E090E002C0880F991F6A95E2F7282744
:1003B000208380E008958091F3008F5F8093F300A5
:1003C0008091F30090E020912F013091300182174D
:1003D000930729F41092F30081E08093F2000895CE
:1003E0008091F200813051F40E9414040E94D202E4
:1003F0000E9488040E9450041092F20008950F9306
:100400001F938B010E9418020E94490081E00E9404
:100410004E0081E06BED71E00E946E008DE70E945E
:100420008F021093300100932F011F910F910895B7
:10043000FC018081882319F483B78F7B09C0813048
:1004400019F483B78F7B0EC0823031F483B7806498
:1004500083BF83B7877F09C0833011F091E007C065
:1004600083B7806483BF83B7886083BF90E0818156
:10047000882319F483B78F7E04C0813031F483B7A9
:10048000806183BF83B78F7D0EC0823019F483B73C
:100490008F7E06C0833011F092E006C083B7806182
:1004A00083BF83B7806283BF8281882331F483B79F
:1004B000816083BF83B78D7F07C0813049F483B7E4
:1004C0008E7F83BF83B7826083BF83B78B7F23C058
:1004D000823019F483B78160F4CF833019F483B785
:1004E0008E7F04C0843031F483B7816083BF83B7CB
:1004F0008D7F0EC0853019F483B78E7F06C086309D
:1005000011F093E009C083B7816083BF83B7826035
:1005100083BF83B7846083BF892F089508958F3F79
:1005200011F484E008958CBF80E00895DC01E1E3DC
:10053000F1E090E021E012968C91129782838C91E9
:10054000808311968C911197818313968C911397C8
:10055000838313968C911397882319F4248325831E
:1005600006C0823011F091E002C014821582169606
:10057000369681E0ED33F807F1F6892F0895DB0117
:10058000823010F082E0089590E0FC01EE0FFF1F32
:10059000E80FF91FEE0FFF1FEF5CFE4F83818C9376
:1005A00080E00895DF92EF92FF920F931F93CF9315
:1005B000DF938091F4008B5F8093F400843108F422
:1005C00044C01092F400C2E3D1E000E010E0E2E0A9
:1005D000DE2EEE24E39473E0F72E8C818B83A8014A
:1005E000440F551F400F511F440F551F4A5C5E4F6B
:1005F000888169810E944A018A81813079F0813045
:1006000028F0823081F08330D1F415C08B818823AB
:10061000B1F48C81882399F4EA8211C08C818823FB
:1006200071F4DA820CC08B81813049F48C81813085
:1006300031F4FA8204C08C81813009F41A820F5F90
:100640001F4F26960230110541F6DF91CF911F9181
:100650000F91FF90EF90DF900895DC01EDE3F1E062
:1006600090E08C91843010F091E001C0808312966C
:100670008C9112978A3010F092E001C0828311961B
:100680008C911197843010F091E001C08183149611
:100690008C911497883010F092E001C084831496F6
:1006A0008C911497883010F091E004C013968C91CF
:1006B000139783831696369681E0E535F80789F619
:1006C000892F0895843010F081E008956A3010F089
:1006D00082E0089590E0FC01EE0FFF1FE80FF91F84
:1006E000EE0FFF1FE35CFE4F628380E00895DB01A5
:1006F000843010F081E0089590E0FC01EE0FFF1FC0
:10070000E80FF91FEE0FFF1FE35CFE4F82818C9311
:1007100080E008950F931F93DF93CF930F92CDB78F
:10072000DEB78B01843010F081E01DC090E0FC0149
:10073000EE0FFF1FE80FF91FEE0FFF1FE35CFE4FE8
:1007400083816481AE014F5F5F4F0E944A018981BE
:10075000882321F481E0F801808304C0813011F402
:10076000F801108280E00F90CF91DF911F910F91DF
:100770000895FF920F931F93F62E843010F081E0BE
:1007800018C091E0961710F483E013C090E08C013C
:10079000000F111F080F191F000F111F035C1E4FC0
:1007A000F801838164814F2D0E948501F801F58253
:1007B00080E01F910F91FF9008950F931F93182FC2
:1007C000062F843010F081E02CC06A3010F082E0F7
:1007D00028C080E061E00E94B90381E061E00E94EE
:1007E000B90382E061E00E94B90383E061E00E9406
:1007F000B903812F90E0FC01EE0FFF1FE80FF91FF6
:10080000EE0FFF1FE35CFE4FA02FB0E0A558BF4FD7
:1008100081816C910E94B401812F60E00E94B90334
:1008200080E01F910F9108958091F5008B5F809378
:10083000F5008530F0F01092F5002091F60024309C
:1008400060F4822F90E0FC01EE0FFF1FE80FF91F0C
:10085000EE0FFF1FE35CFE4F6281822F0E94DD03DB
:100860008091F6008F5F8093F600843011F410922F
:10087000F60008958CE690E0089585E890E00895EC
:100880008DE990E0089588E790E008959093F8004E
:100890008093F70008958091F7009091F8000895F3
:1008A000DF93CF930F92CDB7DEB78091F9008B5FC6
:1008B0008093F900843140F11092F90080E0BE018C
:1008C0006F5F7F4F0E94BF028981813021F41092B7
:1008D000F8001092F70081E0BE016F5F7F4F0E9429
:1008E000BF028981813081F48091F7009091F800F6
:1008F00001969093F8008093F7008051974221F47D
:100900001092F8001092F7000F90CF91DF910895A8
:10091000CF92DF92EF92FF920F931F93CF93DF93CB
:100920000E944B04EC010E944B046C010E944B049A
:100930007C010E944B048C018091FA008B5F8093B4
:10094000FA00843158F11092FA00CE016AE070E0AA
:100950000E940305682F83E00E946203C80168EECD
:1009600073E00E94030580E00E946203C70168EE05
:1009700073E00E94030564E670E00E94030581E0D5
:100980000E946203C60164E670E00E9403056AE00B
:1009900070E00E94030582E00E946203DF91CF9124
:1009A0001F910F91FF90EF90DF90CF90089583E01B
:1009B00060E00E94620380E060E00E94620383E0E6
:1009C00060E00E94B90380E060E00E94B9030895EE
:1009D0000E94430465E070E00E94FF010E94400411
:1009E0000E94B8000E943A040E9496020E943D04B0
:1009F0000E942D0387EE93E00E9446040E94D704D4
:100A00000E94F001FDCFAA1BBB1B51E107C0AA1F2A
:100A1000BB1FA617B70710F0A61BB70B881F991F9F
:100A20005A95A9F780959095BC01CD010895F89449
:020A3000FFCFF6
:100A3200393633303A3734313B3835320000010031
:100A420000000000000000000100013F065B4F664D
:100A52006D7D077F6F0002000002000102000003AB
:100A62000002020000040003020000050000000171
:100A7200000100000101000100000200010100006C
:100A82000300010100000400010100000500010152
:100A92000002000001000002010001000002020049
:100AA2000100000203000100000204000100000234
:100AB2000500010000020600010000000000000025
:020AC200000032
:00000001FF
