:100000000C942A000C9447000C9447000C94470071
:100010000C9447000C9447000C9447000C94470044
:100020000C9447000C9447000C9494000C944700E7
:100030000C9447000C9447000C9447000C94470024
:100040000C9447000C9447000C9447000C94470014
:100050000C94470011241FBECFE5D4E0DEBFCDBF16
:1000600010E0A0E6B0E0ECEDF9E002C005900D92E2
:10007000A43DB107D9F711E0A4EDB0E001C01D9295
:10008000AC32B107E1F70E94BD040C94EC040C946F
:1000900000008FB780688FBF80E00895882329F41F
:1000A00089B7816089BF80E00895813011F081E0D7
:1000B000089589B7826089BF80E00895882329F474
:1000C00089B78E7F89BF80E00895813011F081E08B
:1000D000089589B78D7F89BF80E008958A3110F037
:1000E00081E00895E82FF0E0EE0FFF1FE252FF4F8E
:1000F0007183608380E00895FB01882341F408B692
:1001000000FC02C01082089581E0808308C0813025
:1001100011F081E0089508B600FC03C0108280E071
:100120000895808380E008951F920F920FB60F927A
:1001300011242F933F934F935F936F937F938F93EC
:100140009F93AF93BF93EF93FF930E94DB01FF91C7
:10015000EF91BF91AF919F918F917F916F915F913F
:100160004F913F912F910F900FBE0F901F901895B8
:10017000CF93DF93DC0130E060E041E050E0EC91B0
:10018000E43010F031E07DC011969C9111979830C9
:1001900010F032E076C013962C911397223010F0B5
:1001A00033E01CC0F0E0EC59FF4F8081E82FF0E015
:1001B000213049F42081EA0102C0CC0FDD1F9A955D
:1001C000E2F72C2B0AC02081EA0102C0CC0FDD1F10
:1001D0009A95E2F7CE0180952823208312962C91E0
:1001E0001297223010F035E020C0EC91F0E0E85991
:1001F000FF4F808111969C911197E82FF0E02130FC
:1002000049F42081EA0102C0CC0FDD1F9A95E2F784
:100210002C2B0AC02081EA0102C0CC0FDD1F9A9569
:10022000E2F7CE0180952823208314962C91149711
:10023000223030F513968C911397813009F5EC91AB
:10024000F0E0E859FF4F808111969C911197E82FBB
:10025000F0E0213049F42081EA0102C0CC0FDD1F1B
:100260009A95E2F72C2B0AC02081EA0102C0CC0F3C
:10027000DD1F9A95E2F7CE0180952823208301C0E7
:1002800034E06F5F16966A3009F079CF832FDF91E3
:10029000CF910895DA01843010F081E0089568303C
:1002A00010F082E00895E82FF0E0E05AFF4FE0817F
:1002B000F0E08081E82FF0E081E090E0062E02C0BF
:1002C000880F991F0A94E2F7E823F92302C0F595F5
:1002D000E7956A95E2F7EE2311F41C9202C0E13033
:1002E00011F080E00895EC9380E00895DB01843004
:1002F00010F081E00895E82FF0E0E05AFF4FE08130
:10030000F0E080818C9380E00895843010F081E0EB
:100310000895683010F082E00895E82FF0E0E85981
:10032000FF4F8081413069F4E82FF0E0208181E0C7
:1003300090E002C0880F991F6A95E2F7282B20836E
:1003400002C0442311F080E00895E82FF0E02081FE
:1003500081E090E002C0880F991F6A95E2F78095CE
:100360002823208380E00895843010F081E00895F0
:10037000E82FF0E0E859FF4FE081F0E0608380E093
:100380000895843010F081E00895683010F082E024
:100390000895E82FF0E0E859FF4FE081F0E0208178
:1003A00081E090E002C0880F991F6A95E2F7282744
:1003B000208380E008958091D5009091D600019629
:1003C0009093D6008093D5002091D5003091D6002F
:1003D00080911201909113012817390739F4109276
:1003E000D6001092D50081E08093D40008958091CA
:1003F000D400813051F40E9415040E94D9020E9459
:100400004B040E9483041092D40008950F931F930D
:100410008B010E941F020E94490081E00E944E0051
:1004200081E06BED71E00E946E008DE70E94960204
:1004300010931301009312011F910F910895FC0175
:100440008081882319F483B78F7B09C0813019F428
:1004500083B78F7B0EC0823031F483B7806483BF53
:1004600083B7877F09C0833011F091E007C083B75D
:10047000806483BF83B7886083BF90E081818823D5
:1004800019F483B78F7E04C0813031F483B7806163
:1004900083BF83B78F7D0EC0823019F483B78F7E00
:1004A00006C0833011F092E006C083B7806183BF3D
:1004B00083B7806283BF8281882331F483B78160F0
:1004C00083BF83B78D7F07C0813049F483B78E7FA8
:1004D00083BF83B7826083BF83B78B7F23C08230A3
:1004E00019F483B78160F4CF833019F483B78E7F1A
:1004F00004C0843031F483B7816083BF83B78D7FBC
:100500000EC0853019F483B78E7F06C0863011F097
:1005100093E009C083B7816083BF83B7826083BFE4
:1005200083B7846083BF892F089508958F3F11F4A6
:1005300084E008958CBF80E00895DC01E4E1F1E0FF
:1005400090E021E012968C91129782838C918083A7
:1005500011968C911197818313968C9113978383B5
:1005600013968C911397882319F42483258306C04E
:10057000823011F091E002C01482158216963696F0
:1005800081E0E032F807F1F6892F0895DB0182302F
:1005900010F082E0089590E0FC01EE0FFF1FE80FDD
:1005A000F91FEE0FFF1FEC5EFE4F83818C9380E0FE
:1005B0000895DF92EF92FF920F931F93CF93DF93F3
:1005C0008091D7008B5F8093D700843108F444C0BA
:1005D0001092D700C5E1D1E000E010E0E2E0DE2EAD
:1005E000EE24E39473E0F72E8C818B83A801440FF3
:1005F000551F400F511F440F551F475E5E4F8881A6
:1006000069810E944A018A81813079F0813028F025
:10061000823081F08330D1F415C08B818823B1F40E
:100620008C81882399F4EA8211C08C81882371F42B
:10063000DA820CC08B81813049F48C81813031F4B5
:10064000FA8204C08C81813009F41A820F5F1F4F37
:1006500026960230110541F6DF91CF911F910F913F
:10066000FF90EF90DF900895DC01E0E2F1E090E090
:100670008C91823010F091E001C0808312968C91B1
:1006800012978A3010F092E001C0828311968C910B
:100690001197843010F091E001C0818314968C9101
:1006A0001497883010F092E001C0848314968C91E6
:1006B0001497883010F091E004C013968C91139732
:1006C00083831696369681E0EC32F80789F6892FF7
:1006D00008950F931F93DF93CF930F92CDB7DEB79B
:1006E0008B01823010F081E01FC090E0FC01EE0F22
:1006F000FF1FE80FF91FEE0FFF1FE05EFE4F818125
:10070000BE016F5F7F4F0E9476012981E7E8F0E02C
:1007100090E08081281719F4F801908304C09F5F4E
:1007200031969A30B1F780E00F90CF91DF911F9111
:100730000F910895FF920F931F93F62E823010F0C1
:1007400081E01CC099E0961710F482E017C090E099
:100750008C01000F111F080F191F000F111F005EE1
:100760001E4FE62FF0E0E957FF4FD80111968C910C
:1007700060810E94B401F801F28280E01F910F9124
:10078000FF9008950F931F93DF93CF930F92CDB7F0
:10079000DEB78B01823010F081E01DC090E0FC01DB
:1007A000EE0FFF1FE80FF91FEE0FFF1FE05EFE4F79
:1007B00083816481AE014F5F5F4F0E944A0189814E
:1007C000882321F481E0F801808304C0813011F492
:1007D000F801108280E00F90CF91DF911F910F916F
:1007E0000895FF920F931F93F62E823010F081E050
:1007F00018C091E0961710F483E013C090E08C01CC
:10080000000F111F080F191F000F111F005E1E4F50
:10081000F801838164814F2D0E948501F801F582E2
:1008200080E01F910F91FF9008958091D9008B5F18
:100830008093D9008530C0F01092D90080E061E04B
:100840000E94F10381E061E00E94F1038091D800F1
:1008500060E00E94F1038091D8008F5F8093D80000
:10086000823011F41092D80008958CE690E008953B
:1008700088E790E0089581E990E0089584E890E0A9
:1008800008959093DB008093DA0008958091DA0058
:100890009091DB000895DF93CF930F92CDB7DEB731
:1008A0008091DC008B5F8093DC00843140F11092FA
:1008B000DC0080E0BE016F5F7F4F0E94C60289812D
:1008C000823021F41092DB001092DA0081E0BE0148
:1008D0006F5F7F4F0E94C6028981823081F48091D0
:1008E000DA009091DB0001969093DB008093DA00B0
:1008F0008436910521F41092DB001092DA000F90FB
:10090000CF91DF9108950F931F93CF93DF930E94B0
:100910004604EC010E9446048C018091DD008B5F4F
:100920008093DD00843198F01092DD00CE016AE002
:1009300070E00E94D804682F80E00E949A03C801EA
:100940006AE070E00E94D80481E00E949A03DF917F
:10095000CF911F910F91089580E060E00E949A036B
:1009600081E060E00E949A0380E060E00E94F10371
:1009700081E060E00E94F10308950E943B040E9420
:10098000B8000E943E0465E070E00E9406020E94EA
:1009900035040E949D020E9438040E94340385E0C1
:1009A00090E00E9441040E94AC040E94F701FDCF38
:1009B000AA1BBB1B51E107C0AA1FBB1FA617B70785
:1009C00010F0A61BB70B881F991F5A95A9F78095A1
:0C09D0009095BC01CD010895F894FFCF74
:1009DC00393633303A3734313B3835320000010088
:1009EC0000000000000000000002010002000102F3
:1009FC00010003000100013F065B4F666D7D077F20
:100A0C006F00000100010000010100010000020064
:100A1C0001010000030001010002000001000002BE
:100A2C0001000100000202000100000203000100AD
:100A3C000002040001000002050001000002060093
:040A4C0001000000A5
:00000001FF
